:1000000014C038C037C036C035C034C033C032C069
:1000100031C030C02FC02EC02DC02CC0F0C52AC0AA
:1000200029C028C027C00A060B0611241FBECFE531
:10003000D4E0DEBFCDBF11E0A0E6B0E0E8EDFFE028
:1000400002C005900D92AA36B107D9F711E0AAE6D1
:10005000B1E001C01D92AE37B107E1F710E0C8E290
:10006000D0E003C02297FE01A7D7C632D107D1F74F
:10007000D3D5A6C7C5CFEF92FF920F931F937B01F5
:100080008C0120E030E040E05FE4AED288237CF0D9
:10009000C801B70120E030E040E05FE45ED129D341
:1000A0009B01AC01205030404040504805C0C80181
:1000B000B7011FD39B01AC01B901CA011F910F9178
:1000C000FF90EF900895A0E0B0E0E8E6F0E03BC7D5
:1000D000DC012B01FA019C91923008F439C1EB014B
:1000E0008881823008F433C1943069F4843009F097
:1000F0002FC111969C9111978981981709F428C1F5
:10010000A0E6B0E025C1843009F421C18230A9F411
:10011000923009F01DC19A01AD0188E0EA01099011
:10012000AE01E90109929E018150C1F7E201898186
:1001300011969C918923818308C1923009F407C1EB
:1001400012962D903C901397EB018A819B81149617
:10015000AD90BD90CD90DC901797EC80FD800E8126
:100160001F819101281B390BB90137FF04C0662795
:100170007727621B730B603271050CF061C0121699
:1001800013066CF537014801062E04C09694879437
:10019000779467940A94D2F721E030E040E050E091
:1001A00004C0220F331F441F551F6A95D2F72150F8
:1001B0003040404050402E213F2140235123211503
:1001C00031054105510521F021E030E040E050E0EB
:1001D00079018A01E628F728082919293CC0232B30
:1001E000D1F1260E371E35014601062E04C0969425
:1001F0008794779467940A94D2F721E030E040E046
:1002000050E004C0220F331F441F551F6A95D2F7D8
:1002100021503040404050402A213B214C215D215B
:10022000211531054105510521F021E030E040E084
:1002300050E059016A01A628B728C828D9280BC060
:10024000821593052CF01C01AA24BB24650103C070
:10025000EE24FF24870111969C91D20111968C9176
:10026000981709F445C0992339F0A80197012A1974
:100270003B094C095D0906C0A60195012E193F09ED
:10028000400B510B57FD08C0118233822282248318
:100290003583468357831DC081E081833382228268
:1002A00088279927DC01821B930BA40BB50B848351
:1002B0009583A683B7830DC0220F331F441F551F9C
:1002C0002483358346835783828193810197938367
:1002D00082832481358146815781DA01C9010197E2
:1002E000A109B1098F5F9F4FAF4FBF4328F30BC0E8
:1002F000918333822282EA0CFB1C0C1D1D1DE482BB
:10030000F5820683178383E08083248135814681CB
:10031000578157FF1AC0C901AA2797FDA095BA2F88
:1003200081709070A070B07056954795379527955D
:10033000822B932BA42BB52B84839583A683B78321
:1003400082819381019693838283DF0101C0D20170
:10035000CD01CDB7DEB7E2E112C6A0E2B0E0E2EB3C
:10036000F1E0FDC569837A838B839C832D833E8373
:100370004F835887E9E0EE2EF12CEC0EFD1ECE01E6
:100380000196B7012BD38E010F5E1F4FCE0105964C
:10039000B80124D38A8991E089278A8BC701B801E3
:1003A000AE01475E5F4F8FDE44D2A096E6E0F3C514
:1003B000A0E2B0E0EDEDF1E0D2C569837A838B83F2
:1003C0009C832D833E834F835887F9E0EF2EF12CD9
:1003D000EC0EFD1ECE010196B70100D38E010F5E1B
:1003E0001F4FCE010596B801F9D2C701B801AE0181
:1003F000475E5F4F68DE1DD2A096E6E0CCC5A0E266
:10040000B0E0E4E0F2E09FC569837A838B839C834C
:100410002D833E834F835887CE010196BE01675FCF
:100420007F4FDCD2CE010596BE016F5E7F4FD6D2E4
:100430009985923088F089898230C8F0943019F417
:10044000823051F404C0843029F4923081F480E683
:1004500090E0C6C0923049F420E09A858A899813CA
:1004600021E02A87CE010996BBC0823049F420E002
:100470009A858A89981321E02A8BCE014196B0C0D3
:100480002D843E844F8458886D887E888F88988C10
:10049000EE24FF248701AA24BB24650140E050E03C
:1004A00060E070E0E0E0F0E0C10181709070892BC5
:1004B000E9F0E60CF71C081D191D9A01AB012A0D85
:1004C0003B1D4C1D5D1D80E090E0A0E0B0E0E61417
:1004D000F7040805190520F481E090E0A0E0B0E001
:1004E000BA01A901480F591F6A1F7B1FAA0CBB1C28
:1004F000CC1CDD1C97FE08C081E090E0A0E0B0E0DD
:10050000A82AB92ACA2ADB2A3196E032F10549F035
:10051000660C771C881C991C569447943794279432
:10052000C3CFFA85EA892B893C898B859C85280F66
:10053000391F2E5F3F4F17C0CA0181709070892B01
:1005400061F016950795F794E79480E090E0A0E0BD
:10055000B0E8E82AF92A0A2B1B2B76956795579560
:1005600047952F5F3F4F77FDE7CF0CC0440F551FD6
:10057000661F771F17FD4160EE0CFF1C001F111F47
:1005800021503040403090E0590790E0690790E4F6
:10059000790760F32B8F3C8FDB01CA018F77907056
:1005A000A070B07080349105A105B10561F447FDDC
:1005B0000AC0E114F1040105110529F0405C5F4F08
:1005C0006F4F7F4F40781A8EFE1711F081E08A8FAF
:1005D0004D8F5E8F6F8F78A383E0898FCE01499610
:1005E00028D1A096E2E1CBC4A8E1B0E0E9EFF2E0C7
:1005F000B6C469837A838B839C832D833E834F8328
:10060000588789E0E82EF12CEC0EFD1ECE010196F4
:10061000B701E4D18E010F5E1F4FCE010596B801E0
:10062000DDD18985823038F08989823020F0C70198
:10063000B8014CD201C08FEF6896E6E0ACC4A8E0E8
:10064000B0E0E4E2F3E088C49B01AC0183E089837D
:10065000DA01C9018827B7FD83959927AA27BB2707
:10066000B82E211531054105510519F482E0898321
:1006700039C08823A9F0203080E0380780E048079F
:1006800080E8580729F460E070E080E09FEC2EC01D
:10069000EE24FF248701E21AF30A040B150B02C0B3
:1006A00079018A018EE1C82ED12CDC82CB82ED82C9
:1006B000FE820F831887C801B7016CD00197181606
:1006C000190684F4082E04C0EE0CFF1C001F111F35
:1006D0000A94D2F7ED82FE820F831887C81AD90ACE
:1006E000DC82CB82BA82CE010196A3D02896E9E0C3
:1006F0004FC4ACE0B0E0EEE7F3E035C469837A8341
:100700008B839C83CE010196BE016B5F7F4F66D1C8
:100710008D81823061F1823050F1843021F48E81FC
:10072000882351F12EC02F81388537FD20C06E817E
:100730002F3131051CF06623F9F023C08EE190E0E3
:10074000821B930B29853A854B855C8504C05695A1
:100750004795379527958A95D2F76623B1F050953E
:100760004095309521953F4F4F4F5F4F0EC020E091
:1007700030E040E050E009C02FEF3FEF4FEF5FE780
:1007800004C020E030E040E050E8B901CA012C96F6
:10079000E2E005C4EF92FF920F931F937B018C015F
:1007A00080E0E81680E0F80681E0080780E018079E
:1007B00088F48FEFE816F1040105110531F028F0F7
:1007C00088E090E0A0E0B0E017C080E090E0A0E01A
:1007D000B0E012C080E0E81680E0F80680E008078C
:1007E00081E0180728F088E190E0A0E0B0E004C0C4
:1007F00080E190E0A0E0B0E020E230E040E050E0B6
:10080000281B390B4A0B5B0B04C016950795F79410
:10081000E7948A95D2F7F701E859FF4F8081281BAA
:10082000310941095109C9011F910F91FF90EF90C2
:100830000895DF92EF92FF920F931F93FC01E480E3
:10084000F58006811781D1808081823048F480E074
:1008500090E0A0E1B0E0E82AF92A0A2B1B2BA5C002
:10086000843009F49FC0823021F4EE24FF248701F4
:1008700005C0E114F1040105110519F4E0E0F0E010
:1008800096C0628173819FEF623879070CF05BC07C
:1008900022E83FEF261B370B2A3131052CF020E0F0
:1008A00030E040E050E02AC0B801A701022E04C0A9
:1008B00076956795579547950A94D2F781E090E031
:1008C000A0E0B0E004C0880F991FAA1FBB1F2A95A3
:1008D000D2F70197A109B1098E219F21A023B1234D
:1008E0000097A105B10521F081E090E0A0E0B0E023
:1008F0009A01AB01282B392B4A2B5B2BDA01C9015A
:100900008F779070A070B07080349105A105B1050B
:1009100039F427FF09C0205C3F4F4F4F5F4F04C0A1
:10092000215C3F4F4F4F5F4FE0E0F0E02030A0E010
:100930003A07A0E04A07A0E45A0710F0E1E0F0E02F
:1009400079018A0127C06038710564F5FB01E1581F
:10095000FF4FD801C7018F779070A070B0708034BE
:100960009105A105B10539F4E7FE0DC080E490E0E2
:10097000A0E0B0E004C08FE390E0A0E0B0E0E80EBB
:10098000F91E0A1F1B1F17FF05C016950795F79440
:10099000E794319687E016950795F794E7948A9542
:1009A000D1F705C0EE24FF248701EFEFF0E06E2FB2
:1009B000679566276795902F9F77D794DD24D79406
:1009C0008E2F8695492F462B582F5D29B701CA01D6
:1009D0001F910F91FF90EF90DF900895FC01DB01D4
:1009E000408151812281622F6F7770E0221F222780
:1009F000221F9381892F880F822B282F30E0991F87
:100A00009927991F11969C93119721153105A9F5E6
:100A1000411551056105710511F482E037C082E886
:100A20009FEF13969C938E9312979A01AB0167E008
:100A3000220F331F441F551F6A95D1F783E08C9313
:100A40000DC0220F331F441F551F12968D919C918C
:100A50001397019713969C938E931297203080E002
:100A6000380780E0480780E4580758F314962D9320
:100A70003D934D935C93179708952F3F310579F47B
:100A8000411551056105710519F484E08C930895B1
:100A900064FF03C081E08C9312C01C9210C02F57DA
:100AA000304013963C932E93129783E08C9387E00B
:100AB000440F551F661F771F8A95D1F770641496EF
:100AC0004D935D936D937C93179708951F93DC016D
:100AD000FB019C91923008F447C08081823008F479
:100AE00043C0943051F411961C91843099F5818162
:100AF000682F70E0611B71093FC0843021F0923093
:100B000031F48230B9F18181882389F12DC01196A9
:100B10001C9111978230F1F081811817D9F4129647
:100B20002D913C911397828193818217930794F0C2
:100B300028173907BCF014968D919D910D90BC91AA
:100B4000A02D2481358146815781281739074A070E
:100B50005B0718F4112341F00AC082179307A4071A
:100B6000B50740F4112319F061E070E005C06FEFA4
:100B70007FEF02C060E070E0CB011F91089517B8CD
:100B800080E786B987B187B986B1866086B9339A1E
:100B9000379A08950F931F938C0187B16770862B46
:100BA00087B984EC99E00197F1F7369A24B145B101
:100BB000742F60E030E0622B732B882777FD8095DF
:100BC000982F3DDDF8016083718382839383608178
:100BD00071818281938120E030E04AEF5EE30FDC97
:100BE0004ADAF8016483758386839783248135818B
:100BF00046815781B901CA011F910F9108951F9233
:100C00000F920FB60F921124369A0F900FBE0F90CD
:100C10001F90189508950895EF92FF920F931F93D8
:100C2000CF93DF938FEF87BB18BA78948AE691E071
:100C3000A6DF85E690E090936901809368018AE6DB
:100C400091E060E070E0A6DF609372017093730141
:100C500080937401909375018AE691E061E070E001
:100C600099DF609376017093770180937801909378
:100C700079018AE691E062E070E08CDF60937A01AE
:100C800070937B0180937C0190937D01C4ECD9E04B
:100C9000E0916801F0916901E536F10560F18AE6BD
:100CA00091E060E070E076DF609372017093730111
:100CB00080937401909375018AE691E061E070E0A1
:100CC00069DF609376017093770180937801909348
:100CD00079018AE691E062E070E05CDF60937A017E
:100CE00070937B0180937C0190937D011092690148
:100CF00010926801CDCF8091720190917301A09103
:100D00007401B09175012091760130917701409185
:100D1000780150917901E0907A01F0907B01009187
:100D20007C0110917D0160E085369105A105B1053A
:100D300008F061E080E0253631054105510508F0F5
:100D400081E0682B862F90E020E030E045E6E41655
:100D5000F1040105110510F021E030E0822B932B06
:100D6000892B09F4A1C02091720130917301409147
:100D70007401509175018091760190917701A09155
:100D80007801B091790182179307A407B50708F09D
:100D900097C020917201309173014091740150917C
:100DA000750180917A0190917B01A0917C01B091B5
:100DB0007D0182179307A407B50708F081C08091D1
:100DC000720190917301A0917401B09175010B971C
:100DD000A105B10508F474C0C19A67C020917601DD
:100DE00030917701409178015091790180917201A1
:100DF00090917301A0917401B091750182179307CE
:100E0000A407B50708F072C0809176019091770130
:100E1000A0917801B09179010B97A105B10508F473
:100E200065C0C29AC19842C020917A0130917B017D
:100E300040917C0150917D018091760190917701E4
:100E4000A0917801B091790182179307A407B507A3
:100E500008F062C080917A0190917B01A0917C01A1
:100E6000B0917D010B97A105B10508F455C0C39A57
:100E7000C298C1981CC020917201309173014091B9
:100E800074015091750180917A0190917B01A0913C
:100E90007C01B0917D01281739074A075B0739F4B7
:100EA000C19AC29AC39A03C0C198C298C398319696
:100EB000F0936901E0936801CE010197F1F7E8CE64
:100EC000209176013091770140917801509179011C
:100ED0008091720190917301A0917401B09175019C
:100EE00082179307A407B50708F478CF20917A01F9
:100EF00030917B0140917C0150917D018091720184
:100F000090917301A0917401B091750182179307BC
:100F1000A407B50708F488CF2091720130917301BE
:100F20004091740150917501809176019091770103
:100F3000A0917801B0917901281739074A075B071A
:100F400009F0B5CF98CF2F923F924F925F926F9258
:100F50007F928F929F92AF92BF92CF92DF92EF9249
:100F6000FF920F931F93CF93DF93CDB7DEB7CA1BCA
:100F7000DB0B0FB6F894DEBF0FBECDBF09942A88F5
:100F8000398848885F846E847D848C849B84AA849D
:100F9000B984C884DF80EE80FD800C811B81AA812A
:100FA000B981CE0FD11D0FB6F894DEBF0FBECDBFF5
:100FB000ED010895EE0FFF1F0590F491E02D0994C7
:100FC00010E0C8E2D0E003C0FE01F6DF2296CA328C
:080FD000D107D1F7F894FFCF1F
:100FD80000000000000000000001020203030303F8
:100FE80004040404040404040505050505050505B1
:100FF8000505050505050505060606060606060691
:101008000606060606060606060606060606060678
:101018000606060606060606070707070707070760
:101028000707070707070707070707070707070748
:101038000707070707070707070707070707070738
:101048000707070707070707070707070707070728
:101058000707070707070707080808080808080810
:1010680008080808080808080808080808080808F8
:1010780008080808080808080808080808080808E8
:1010880008080808080808080808080808080808D8
:1010980008080808080808080808080808080808C8
:1010A80008080808080808080808080808080808B8
:1010B80008080808080808080808080808080808A8
:1010C8000808080808080808080808080808080898
:0A10D8000808080808080808650069
:00000001FF
